:020000040800F2
:100000000028002031170008790400087B0400084C
:100010007D0400087F04000881040008000000003F
:100020000000000000000000000000008304000841
:100030008504000800000000870400088904000807
:100040007917000879170008791700087917000850
:100050007917000879170008791700087917000840
:100060007917000879170008791700087917000830
:100070007917000879170008791700087917000820
:100080007917000879170008791700087917000810
:100090007917000879170008791700087917000800
:1000A00079170008791700087917000879170008F0
:1000B0007917000879170008000000007917000878
:1000C0007917000800000000000000007917000800
:1000D00000000000791700087917000800000000F0
:1000E0007917000879170008791700080000000048
:1000F0000000000000000000000000000000000000
:0C01000000000000000000005FF808F1A3
:10010C0010B5054C237833B9044B13B10448AFF345
:10011C0000800123237010BD70000020000000003F
:10012C00E420000808B5034B1BB103490348AFF3A7
:10013C00008008BD0000000074000020E4200008CE
:10014C00034613F8012B002AFBD1181A013870470B
:10015C0072B6FEE700B591B02822002106A801F086
:10016C002BFB002301930293039304930593012229
:10017C0006924FF4803307930A9202220D920E934B
:10018C004FF480130F9306A800F006FC88B90F23D8
:10019C00019302230293002303934FF48062049291
:1001AC000593012101A800F037FE20B911B05DF8CC
:1001BC0004FBFFF7CDFFFFF7CBFF000000B589B0C4
:1001CC0000F09CFBFFF7C6FF00F03CF800F080F855
:1001DC0000F0DAF806E0174800F02CF94FF47A70CA
:1001EC0000F0B0FB01F026FA0028F4D101F066FA19
:1001FC00114800F01FF9114800F01CF9002300937E
:10020C0001930293039304930593069307930AE0D7
:10021C0000238DF820306946094800F00BF94FF4A3
:10022C007A7000F08FFB684601F02EFA0028EFD0B0
:10023C00F5E700BFFC2000080C2100082021000875
:10024C003021000830B589B000240494059406943C
:10025C0007941D4B9A6942F020029A619A6902F048
:10026C0020020192019A9A6942F004029A619A69F9
:10027C0002F004020292029A9A6942F008029A6110
:10028C009B6903F008030393039B104D22464FF424
:10029C00C051284600F0ACFF4FF4806304930594E2
:1002AC000124069404A9284600F092FE4FF4C05392
:1002BC000493059406940323079304A9284600F09D
:1002CC0087FE09B030BD00BF00100240000C014099
:1002DC0008B50E480E4B03604FF482734360002345
:1002EC008360C360036143614FF400728261182222
:1002FC00C2610362436283620A23C36200F060F945
:10030C0000B908BDFFF724FFFBE700BF8C000020FD
:10031C000030014010B586B0002302930393049380
:10032C0005930268164B9A4201D006B010BD03F536
:10033C0060439A6942F480529A619A6902F480523D
:10034C000092009A9A6942F004029A619B6903F048
:10035C0004030193019BA023029302230393032321
:10036C000593084C02A9204600F032FE402302936C
:10037C0000230393049302A9204600F029FED4E73E
:10038C00003001400008014008B50A480A4B0360E0
:10039C004FF4E133436000238360C36003610C229C
:1003AC0042618361C36101F007F800B908BDFFF732
:1003BC00CFFEFBE7E40000200038014010B586B00A
:1003CC00002302930393049305930268174B9A42FC
:1003DC0001D006B010BD03F558439A6942F480422F
:1003EC009A619A6902F480420092009A9A6942F0EA
:1003FC0004029A619B6903F004030193019B4FF47F
:10040C00007302930223039303230593084C02A960
:10041C00204600F0DDFD4FF480630293002303932C
:10042C00049302A9204600F0D3FDD2E70038014026
:10043C00000801400FB400B5B5B036AA52F8041B41
:10044C00339201A801F0D6F901A8FFF779FE4FF01D
:10045C00FF3382B201A9044800F0DDFF35B05DF82E
:10046C0004EB04B0704700BFE4000020FEE7FEE799
:10047C00FEE7FEE7FEE770477047704708B500F0EF
:10048C004FFA08BD82B00E4B9A6942F001029A6194
:10049C009A6902F001020092009ADA6942F08052E5
:1004AC00DA61DB6903F080530193019B054A5368C1
:1004BC0023F0E06343F08063536002B0704700BFE9
:1004CC0000100240000001402DE9F04782B00546C3
:1004DC00884617461E4600F02FFA0A9B1B1A03EBA0
:1004EC00060900F029FA82462B4B1B68C3F3CB3369
:1004FC0009FB03F301932B689C6838EA04030CBFD7
:10050C004FF0010C4FF0000CBC4540D0B6F1FF3F52
:10051C00F1D000F011FAA0EB0A0048450AD2B9F16B
:10052C00000F07D0019A02B14A46019B013B01938F
:10053C009146E0E72A68536823F0E00353606B6848
:10054C00B3F5827F0BD0AB6AB3F5005F14D00123F7
:10055C0085F85130002385F85030032018E0AB6843
:10056C00B3F5004F02D0B3F5806FECD12A68136855
:10057C0023F040031360E6E72A68136823F4005362
:10058C0013602A68136843F400531360DFE70020FC
:10059C0002B0BDE8F08700BF0800002010B582B0A3
:1005AC0004460B46009200228021FFF78DFF08B90C
:1005BC0002B010BD636D43F0200363650320F7E7C1
:1005CC00002856D010B50446436A33B94368B3F5D6
:1005DC00827F05D00023C36102E0002303614361E5
:1005EC000023A36294F85130002B3CD0022384F8F2
:1005FC0051302268136823F040031360636803F4DE
:10060C008273A26802F404421343E26802F40062AB
:10061C001343226902F002021343626902F00102E1
:10062C001343A26902F400721343E26902F0380228
:10063C001343226A02F080021343A26A02F40052AE
:10064C00216813430B60638B226803F0040353602F
:10065C002268D36923F40063D36100206065012311
:10066C0084F8513010BD84F850302046FFF752FE0C
:10067C00BCE7012070472DE9F04383B01F460A9D6B
:10068C0090F85030012B00F01081044688469146BA
:10069C00012380F8503000F04FF9064694F85130A1
:1006AC00DBB26268012B0AD0B2F5827F40F0E380A6
:1006BC00A268002A40F0E980042B40F0E880B8F1F1
:1006CC00000F00F0E680B9F1000F00F0E480002F7D
:1006DC0000F0E38094F85130DBB2042B02D00523F8
:1006EC0084F8513000236365C4F83890E787A787F6
:1006FC00C4F83080E786A7862364636423681A688D
:10070C0012F0400F03D11A6842F040021A60E368FD
:10071C00B3F5006F11D063680BB1012F0BD1226BB5
:10072C00236812781A73236B01332363E38E9BB215
:10073C00013B9BB2E38601276BE063680BB1012F91
:10074C000BD1226B23681288DA60236B023323638C
:10075C00E38E9BB2013B9BB2E38601271CE023682E
:10076C009A6812F0010F0ED0E28F92B25AB1DA6889
:10077C00A36B1A80A36B0233A363E38F9BB2013B81
:10078C009BB2E387012700F0D7F8801BA84203D364
:10079C00B5F1FF3F40F08380E38E9BB21BB9E38F32
:1007AC009BB2002B53D023689A6812F0020FD6D05C
:1007BC00E28E92B2002AD2D0002FD0D0226B1288B7
:1007CC00DA60236B02332363E38E9BB2013B9BB253
:1007DC00E3860027C3E723689A6812F0010F0ED056
:1007EC00E28F92B25AB1DA68A36B1A70A36B013321
:1007FC00A363E38F9BB2013B9BB2E387012700F01D
:10080C009BF8831BAB4202D3B5F1FF3F49D1002DBE
:10081C0049D0E38E9BB213B9E38F9BB2BBB1236873
:10082C009A6812F0020FD6D0E28E92B2002AD2D081
:10083C00002FD0D0226B12781A73236B01332363F1
:10084C00E38E9BB2013B9BB2E3860027C3E73246A3
:10085C0029462046FFF7A2FE48B9A36863B9019365
:10086C002368DA6801929B680193019B04E02023C2
:10087C006365012000E00220012384F8513000233D
:10088C0084F8503003B0BDE8F0830220F4E7022076
:10089C00F2E70120F0E70120EEE70120ECE703206E
:1008AC00EAE70320E8E70320E6E70220EAE7000096
:1008BC0010B504460E4B18784FF47A73B3FBF0F373
:1008CC000C4A1068B0FBF3F000F0E2FC68B90F2C96
:1008DC0001D901200AE0002221464FF0FF3000F040
:1008EC009FFC054B1C60002000E0012010BD00BFE8
:1008FC0000000020080000200400002008B5074A72
:10090C00136843F010031360032000F077FC0F20F2
:10091C00FFF7CEFFFFF7B6FD002008BD0020024018
:10092C00034A1168034B1B780B441360704700BFDC
:10093C002801002000000020014B1868704700BF00
:10094C002801002038B50446FFF7F6FF0546B4F140
:10095C00FF3F02D0044B1B781C44FFF7EDFF401BFC
:10096C00A042FAD338BD00BF0000002082B0084B73
:10097C001B68084AA2FB03235B0A00FB03F30193E9
:10098C0000BF019B5A1E0192002BF9D102B0704797
:10099C0008000020D34D6210002800F0F18170B5E2
:1009AC0082B00446036813F0010F2CD0994B5B689E
:1009BC0003F00C03042B1DD0964B5B6803F00C0367
:1009CC00082B12D06368B3F5803F41D0002B55D172
:1009DC0003F1804303F504331A6822F480321A6061
:1009EC001A6822F480221A6037E08A4B5B6813F491
:1009FC00803FE7D0874B1B6813F4003F03D063683C
:100A0C00002B00F0BF81236813F0020F75D0814BCF
:100A1C005B6813F00C0F5FD07E4B5B6803F00C032C
:100A2C00082B54D02369002B00F08A807A4B0122CA
:100A3C001A60FFF781FF0546764B1B6813F0020F17
:100A4C0075D1FFF779FF401B0228F5D903209EE1F1
:100A5C00704A136843F480331360636843B3FFF741
:100A6C006BFF05466B4B1B6813F4003FCBD1FFF7B4
:100A7C0063FF401B6428F5D9032088E1B3F5A02F50
:100A8C0009D0644B1A6822F480321A601A6822F476
:100A9C0080221A60E1E703F18043A3F53C331A6826
:100AAC0042F480221A601A6842F480321A60D4E749
:100ABC00FFF742FF0546574B1B6813F4003FA2D0CB
:100ACC00FFF73AFF401B6428F5D903205FE1514B37
:100ADC005B6813F4803FA5D14E4B1B6813F0020FDB
:100AEC0003D02369012B40F04F814A4A136823F04D
:100AFC00F803616943EAC1031360236813F0080F1C
:100B0C0033D0A369002B5CD0434B0122C3F8802463
:100B1C00FFF712FF05463F4B5B6A13F0020F21D122
:100B2C00FFF70AFF401B0228F5D903202FE1394AB1
:100B3C00136823F0F803616943EAC1031360DCE72F
:100B4C00354B00221A60FFF7F7FE0546314B1B6848
:100B5C0013F0020FD1D0FFF7EFFE401B0228F5D99E
:100B6C00032014E10120FFF701FF236813F0040FA9
:100B7C0000F09680274BDB6913F0805F34D1254B56
:100B8C00DA6942F08052DA61DB6903F08053019339
:100B9C00019B0125214B1B6813F4807F26D0E36851
:100BAC00012B3DD0002B53D103F1804303F50433CB
:100BBC001A6A22F001021A621A6A22F004021A62FC
:100BCC0033E0154B0022C3F88024FFF7B5FE054631
:100BDC00104B5B6A13F0020FC7D0FFF7ADFE401B42
:100BEC000228F5D90320D2E00025D3E70B4A13687D
:100BFC0043F480731360FFF79FFE0646074B1B6898
:100C0C0013F4807FCBD1FFF797FE801B6428F5D9B6
:100C1C000320BCE000100240000042420070004083
:100C2C005F4A136A43F001031362E36833B3FFF7BF
:100C3C0083FE06465A4B1B6A13F0020F2FD1FFF7A7
:100C4C007BFE801B41F288339842F3D903209EE04F
:100C5C00052B09D0524B1A6A22F001021A621A6A49
:100C6C0022F004021A62E0E74D4B1A6A42F00402C9
:100C7C001A621A6A42F001021A62D6E7FFF75CFEAA
:100C8C000646474B1B6A13F0020F08D0FFF754FEC1
:100C9C00801B41F288339842F3D9032077E0E5B901
:100CAC00E369002B72D03E4A526802F00C02082A0B
:100CBC0056D0022B17D03B4B00221A66FFF73CFE96
:100CCC000446374B1B6813F0007F47D0FFF734FE08
:100CDC00001B0228F5D9032059E0314AD36923F0CF
:100CEC008053D361DCE72F4B00221A66FFF724FEFA
:100CFC0005462B4B1B6813F0007F06D0FFF71CFE3C
:100D0C00401B0228F5D9032041E0236AB3F5803F4C
:100D1C001AD023494B6823F47413226A606A024385
:100D2C0013434B601F4B01221A66FFF705FE044666
:100D3C001B4B1B6813F0007F0ED1FFF7FDFD001B52
:100D4C000228F5D9032022E0154A536823F4003316
:100D5C00A1680B435360DCE7002018E0002016E08C
:100D6C00012B16D00E4B5B6803F48031226A914242
:100D7C0011D103F47013626A93420ED1002006E085
:100D8C0001207047012002E0012000E0002002B0A9
:100D9C0070BD0120FBE70120F9E70120F7E700BF58
:100DAC00001002400000424286B0174B0FCB0DF1F1
:100DBC00180C0CE90F0040F20123ADF80430134B72
:100DCC005B6803F00C02082A02D0114806B0704789
:100DDC00C3F3834218326A4412F8100C13F4803FA8
:100DEC000DD00A4B5B68C3F3404318336B4413F8C4
:100DFC00143C074A02FB00F0B0FBF3F0E6E7054BAE
:100E0C0003FB00F0E2E700BF602100080010024085
:100E1C0000127A0000093D00002800F0A08070B597
:100E2C000D460446524B1B6803F007038B420BD252
:100E3C004F4A136823F007030B431360136803F046
:100E4C0007038B4240F08D80236813F0020F17D0FC
:100E5C0013F0040F04D0474A536843F4E063536023
:100E6C00236813F0080F04D0424A536843F46053CC
:100E7C005360404A536823F0F003A1680B4353605E
:100E8C00236813F0010F31D06368012B20D0022BA3
:100E9C0025D0384A126812F0020F64D035494A68DE
:100EAC0022F0030213434B60FFF746FD0646314B1D
:100EBC005B6803F00C036268B3EB820F16D0FFF78C
:100ECC003BFD801B41F288339842F0D9032045E06A
:100EDC00284A126812F4003FE0D101203EE0254A76
:100EEC00126812F0007FD9D1012037E0204B1B682B
:100EFC0003F00703AB420AD91D4A136823F007031A
:100F0C002B431360136803F00703AB422DD1236806
:100F1C0013F0040F06D0174A536823F4E063E1681A
:100F2C000B435360236813F0080F07D0114A536822
:100F3C0023F46053216943EAC1035360FFF734FF84
:100F4C000C4B5B68C3F303130B4AD35CD8400B4BBD
:100F5C0018600B4B1868FFF7ABFC002070BD01202C
:100F6C0070470120FAE70120F8E70120F6E700BFFF
:100F7C0000200240001002407421000808000020EC
:100F8C0004000020014B1868704700BF08000020C7
:100F9C0008B5FFF7F7FF044B5B68C3F30223034A62
:100FAC00D35CD84008BD00BF00100240842100086B
:100FBC0008B5FFF7E7FF044B5B68C3F3C223034A92
:100FCC00D35CD84008BD00BF00100240842100084B
:100FDC0070B582B00024A4468BE07F4DAA4210D09D
:100FEC0007D97E4DAA420CD005F58035AA4208D00F
:100FFC0015E0A5F58015AA4203D005F57025AA4287
:10100C0009D18A68002A00F0BF80012A00F0B7805D
:10101C004361082403E0A5F58015AA42F1D0BEF186
:10102C00FF0F00F2B3800646BEF1FF0F00F2B08056
:10103C004FEA8C0233680F25954023EA050304FA26
:10104C0002F2134333604B6813F0805F4FD0644B54
:10105C009A6942F001029A619B6903F001030193C2
:10106C00019B4FEA9C02951C5E4B53F825600CF0DB
:10107C0003039D000F23AB4026EA03065A4B98420C
:10108C0000F08C8003F58063984200F0898003F5B2
:10109C008063984200F080800323AB4033430232DC
:1010AC00504D45F822304B6813F4803F7AD04F4AAC
:1010BC00136843EA0E0313604B6813F4003F77D0B8
:1010CC004A4A536843EA0E0353604B6813F4801F7B
:1010DC0074D0464A936843EA0E0393604B6813F44A
:1010EC00001F71D0414AD36843EA0E03D3600CF160
:1010FC00010C0A6832FA0CF36CD0012303FA0CF3DE
:10110C0002EA030E33EA0202F1D14A68122A3FF6D0
:10111C0064AF122A83D801A555F822F00F100008ED
:10112C00751100087F110008911100082B100008A0
:10113C002B1000082B1000082B1000082B10000897
:10114C002B1000082B1000082B1000082B10000887
:10115C002B1000082B1000082B1000082B10000877
:10116C007911000885110008CC6858E7CC68043464
:10117C0055E7CC68083452E7CC680C344FE7036170
:10118C0008244CE700244AE7042448E7061D4BE7F3
:10119C00ACF1080292004DE702237EE700237CE7C6
:1011AC0001237AE7114A136823EA0E03136083E7DD
:1011BC000E4A536823EA0E03536086E70B4A936882
:1011CC0023EA0E03936089E7084AD36823EA0E03E7
:1011DC00D3608CE702B070BD00002210000031100B
:1011EC0000100240000001400008014000040140D2
:1011FC000AB101617047090401617047074AD3685D
:10120C0023F4E0631B041B0C000200F4E0600343B6
:10121C0043F0BF6343F40033D360704700ED00E04C
:10122C0000B5194BDB68C3F30223C3F1070CBCF107
:10123C00040F28BF4FF0040C03F1040EBEF1060F8F
:10124C0018D9033B4FF0FF3E0EFA0CFC21EA0C01BF
:10125C0099400EFA03F322EA0303194300280BDB2F
:10126C000901C9B200F1604000F5614080F800133B
:10127C005DF804FB0023E5E700F00F000901C9B29B
:10128C00024B1954F4E700BF00ED00E014ED00E050
:10129C000138B0F1807F0BD24FF0E0235861054A42
:1012AC00F02182F823100020986107221A61704700
:1012BC000120704700ED00E010B504460268136988
:1012CC0023F44053C1680B431361836802691343D1
:1012DC0042691A430168CB6823F4B05323F00C0322
:1012EC001343CB600268536923F4407381690B4349
:1012FC0053610268134B9A4220D0FFF749FE024615
:10130C0002EB820202EB820263689B00B2FBF3F2F7
:10131C000D48A0FB02314909642303FB11231B0177
:10132C003233A0FB03235B0903F0F00202EB011242
:10133C0003F00F03216813448B6010BDFFF738FED8
:10134C000246DDE7003801401F85EB512DE9F843DB
:10135C0005460F4616469946DDF820802C68246811
:10136C0037EA04030CBF4FF0010C4FF0000CB445EE
:10137C001FD1B8F1FF3FF1D0B8F1000F05D0FFF746
:10138C00DBFAA0EB09004045E8D92A68D36823F4BE
:10139C00D073D3602A68536923F00103536120236F
:1013AC0085F83D3085F83E30002385F83C3003202D
:1013BC0000E00020BDE8F88358B310B5044690F85F
:1013CC003D300BB3242384F83D302268D36823F4DA
:1013DC000053D3602046FFF76FFF2268136923F494
:1013EC00904313612268536923F02A0353612268E6
:1013FC00D36843F40053D36000202064202384F886
:10140C003D3084F83E3010BD80F83C30FEF7D6FFFE
:10141C00D8E7012070472DE9F04182B01E4690F8C4
:10142C003D30DBB2202B54D104460D4690460029AA
:10143C0053D0002A53D090F83C30012B51D00123CB
:10144C0080F83C3000230364212380F83D30FFF703
:10145C0073FA0746A4F82480A4F82680A368B3F591
:10146C00805F05D04FF00008002384F83C3012E078
:10147C00236913B14FF00008F6E7A8460025F3E7FF
:10148C0038F8023B2268C3F308035360E28C92B233
:10149C00013A92B2E284E38C9BB273B100963B4664
:1014AC00002280212046FFF751FFE0B9002DE7D044
:1014BC0015F8012B23685A60E8E700963B4600229A
:1014CC0040212046FFF742FF78B9202384F83D30B5
:1014DC0000E0022002B0BDE8F0810120FAE7012013
:1014EC00F8E70220F6E70320F4E70320F2E7704761
:1014FC0000B585B08DF80E10FF23009301230DF17C
:10150C000F020DF10E01FFF7B6F810B1FF238DF8A5
:10151C000F309DF80F0005B05DF804FBF8B50446DC
:10152C000D460C4E00224FF400613046FFF760FE72
:10153C00094F21463846FFF7DBFF0446294638465B
:10154C00FFF7D6FF01224FF400613046FFF750FE43
:10155C002046F8BD000C01408C00002070B50446FC
:10156C000C4D00224FF400612846FFF741FE0A4E55
:10157C0021463046FFF7BCFFFF213046FFF7B8FF8E
:10158C00044601224FF400612846FFF731FE204645
:10159C0070BD00BF000C01408C000020F8B5044663
:1015AC000E46154600224FF400610D48FFF720FE51
:1015BC0021460C48FFF79CFF0746002406E0FF215C
:1015CC000848FFF795FF30550134E4B2AC42F6D32E
:1015DC0001224FF400610248FFF70AFE3846F8BDBD
:1015EC00000C01408C000020F8B505460C46164650
:1015FC0000224FF400610D48FFF7FAFD29460C4814
:10160C00FFF776FF0746002506E014F8011B084893
:10161C00FFF76EFF0135EDB2B542F6D301224FF460
:10162C0000610248FFF7E4FD3846F8BD000C0140AC
:10163C008C00002000B583B0124B93E8030000909F
:10164C008DF80410052269463020FFF7CDFF0522E6
:10165C0069461020FFF7A2FF0023042B09D803F1E1
:10166C0008026A4412F8082CA52A02D10133DBB215
:10167C00F3E7052B03D1002003B05DF804FB012038
:10168C00FAE700BF8C21000838B505460720FFF7A4
:10169C0065FF044601462720FFF740FF14F0400F7A
:1016AC0001D1012038BD202229466120FFF776FFA9
:1016BC00FF21E220FFF732FF0020F3E710B5174CB3
:1016CC0000224FF480512046FFF792FD0F2120207D
:1016DC00FFF724FF01212120FFF720FF0121222009
:1016EC00FFF71CFF28212520FFF718FF0F212620CC
:1016FC00FFF714FF20213120FFF710FF05220849C6
:10170C002A20FFF771FF01224FF480512046FFF78A
:10171C006FFD0120FFF716F910BD00BF000C014052
:10172C00942100080C480D490D4A002302E0D458BE
:10173C00C4500433C4188C42F9D30A4A0A4C00230F
:10174C0001E013600432A242FBD3FFF7D0FE00F09D
:10175C000FF8FEF733FD70470000002070000020EA
:10176C00D42100087000002040010020FEE700009A
:10177C0070B500260C4D0D4C641BA410A64209D16B
:10178C0000F0AAFC00260A4D0A4C641BA410A642C9
:10179C0005D170BD55F8043B98470136EEE755F876
:1017AC00043B98470136F2E7CC210008CC21000815
:1017BC00CC210008D021000803460244934200D1FA
:1017CC00704703F8011BF9E700B59BB00091049139
:1017DC006FF000410591029105490391694600F0B3
:1017EC006FF80022009B1A701BB05DF804FB00BF61
:1017FC000802FFFF13460A46014602480068FFF73D
:10180C00E3BF00BF0C0000202DE9F0478E68824634
:10181C009E420C4690461F4638D88A8912F4906F27
:10182C0032D0256809690133A5EB010965694B4480
:10183C0005EB450505EBD5756D109D4238BF1D4672
:10184C00530531D5294600F06FFB064650B90C23E1
:10185C004FF0FF30CAF80030A38943F04003A38156
:10186C00BDE8F0874A46216900F0CEFAA38923F43B
:10187C00906343F08003A38126614E4426603E466C
:10188C006561A5EB0905A560BE4200D93E4632460E
:10189C004146206800F0C6FAA36800209B1BA36099
:1018AC00236833442360DBE72A4600F0B1FB06468D
:1018BC000028E1D15046216900F0CEFAC7E70000BC
:1018CC002DE9F04F98468B8907461B060D461446AA
:1018DC009DB00ED50B6963B9402100F025FB286043
:1018EC00286120B90C233B604FF0FF30D1E040233E
:1018FC006B610023099320238DF8293030234FF09E
:10190C000109CDF80C80DFF8A4818DF82A3023462C
:10191C009A4613F8012B0AB1252AF9D1BAEB040B1C
:10192C000BD05B46224629463846FFF76DFF013047
:10193C0000F0AA80099A5A4409929AF80030002BB8
:10194C0000F0A28000234FF0FF32CDE905230AF10D
:10195C00010A049307938DF853301A9354460522C9
:10196C0014F8011B514800F041FA049AD8B9D0067A
:10197C0044BF20238DF85330110744BF2B238DF81F
:10198C0053309AF800302A2B15D0544600204FF0D3
:10199C000A0C079A214611F8013B303B092B4ED912
:1019AC00B0B1079214E0A0EB080309FA03F3134358
:1019BC00A2460493D2E7039B191D1B680391002BCD
:1019CC00BBBF5B4242F0020207930793B8BF04927D
:1019DC0023782E2B0CD163782A2B35D1039B023420
:1019EC001A1D1B680392002BB8BF4FF0FF330593F1
:1019FC00DFF8BCA003225046217800F0F7F940B183
:101A0C004023A0EB0A0003FA00F0049B01340343CB
:101A1C00049314F8011B062226488DF8281000F0B8
:101A2C00E5F9002838D0244B1BBB039B073323F06C
:101A3C00070308330393099B3344099367E70C4668
:101A4C0001200CFB0232A5E700234FF00A0C1946CB
:101A5C0001340593204610F8012B303A092A03D99A
:101A6C00002BC5D00591C3E7044601230CFB0121D3
:101A7C00F0E703AB00932A463846104B04A9AFF3AA
:101A8C000080421C0646D6D1AB895B063FF52CAFD5
:101A9C0009981DB0BDE8F08F03AB00932A46384679
:101AAC00064B04A900F07CF8EBE700BF9921000875
:101ABC009F210008A3210008000000001518000851
:101ACC002DE9F047164699468A680B6907469342FA
:101ADC00B8BF1346336091F843200C46DDF82080E4
:101AEC000AB1013333602368990642BF336802336D
:101AFC003360256815F0060506D104F1190AE36870
:101B0C0032689B1AAB4228DC94F84320131E2268DF
:101B1C0018BF012392062DD44946384604F14302DE
:101B2C00C047013020D02368E56803F00603042B7E
:101B3C0018BF002532684FF00006A36808BFAD1A25
:101B4C00226908BF25EAE5759342C4BF9B1AED18BC
:101B5C001A34B5421AD1002008E0012352464946F6
:101B6C003846C047013003D14FF0FF30BDE8F08755
:101B7C000135C4E73020E11881F843005A1C94F871
:101B8C0045102244023382F84310C5E70123224654
:101B9C0049463846C0470130E6D00136D9E7000047
:101BAC002DE9FF470F7E9146782F80460C469A46CA
:101BBC000C9D01F1430207D8622F0AD8002F00F0C8
:101BCC00D980582F00F0A48004F1420584F84270AB
:101BDC003AE0A7F16303152BF6D801A151F823F0D5
:101BEC00451C0008591C0008D51B0008D51B000813
:101BFC00D51B0008D51B0008591C0008D51B000874
:101C0C00D51B0008D51B0008D51B0008671D000854
:101C1C00891C0008491D0008D51B0008D51B0008AD
:101C2C00891D0008D51B0008891C0008D51B00085D
:101C3C00D51B0008511D00082B681A1D1B682A6053
:101C4C0004F1420584F842300123A4E0206829689D
:101C5C00060601F104030AD50E682B60002E03DA88
:101C6C002D23764284F843300A235E4819E00E682F
:101C7C0010F0400F2B6018BF36B2EFE72B682068CE
:101C8C00191D2960010601D51E6802E04606FBD528
:101C9C001E886F2F0CBF08230A235248002184F89A
:101CAC0043106568002DA8BF2168A560A4BF21F072
:101CBC00040121600EB9002D4DD01546B6FBF3F191
:101CCC0003FB1167C75D05F8017D3746BB420E4625
:101CDC00F4D9082B0BD12368DE0708D5236961687A
:101CEC009942DEBF302305F8013C05F1FF35521B4C
:101CFC0022614B4621464046CDF800A003AAFFF7CF
:101D0C00DFFE01304CD14FF0FF3004B0BDE8F0875E
:101D1C00344881F845702968236851F8046B2960B0
:101D2C001D0614D5DF0744BF43F0200323601EB902
:101D3C00236823F0200323601023AFE7236843F0CC
:101D4C00200323607823284884F84530E3E75906BC
:101D5C0048BFB6B2E6E71546BBE72B682668181DE8
:101D6C006169286035061B6801D5196002E07006B0
:101D7C00FBD51980002315462361BAE72B68002197
:101D8C001A1D2A601D686268284600F02FF808B1F9
:101D9C00401B606063682361002384F84330A8E72C
:101DAC002A46494640462369D0470130ABD02368C8
:101DBC009B0713D4E068039B9842B8BF1846A4E76E
:101DCC000123324649464046D04701309BD001356D
:101DDC00E36803995B1AAB42F2DCEBE7002504F1F4
:101DEC001906F5E7AA210008BB210008034610B527
:101DFC00C9B202449342184601D1002003E0047892
:101E0C0001338C42F6D110BD0A44914200F1FF33EC
:101E1C0000D1704710B511F8014B914203F8014FF6
:101E2C00F9D110BD884210B501EB020402D98442ED
:101E3C00234607D8431EA14208D011F8012B03F802
:101E4C00012FF8E7014602448A4200D110BD13F875
:101E5C00014D02F8014DF7E738B50546002940D091
:101E6C0051F8043C0C1F002BB8BFE41800F010F91B
:101E7C001C4A136833B9636014602846BDE83840C7
:101E8C0000F00CB9A34208D9206821188B4201BF7D
:101E9C0019685B6809182160EDE71A465B680BB19D
:101EAC00A342FAD911685018A0420BD12068014402
:101EBC00501883421160E0D118685B6801441160CE
:101ECC005360DAE702D90C232B60D6E7206821187F
:101EDC008B4201BF19685B6809182160636054600C
:101EEC00CBE738BD2C01002070B50E4E0C46316886
:101EFC00054611B900F0BCF830602146284600F0C8
:101F0C00B7F8431C0AD0C41C24F00304A04207D029
:101F1C00211A284600F0ACF8013001D14FF0FF3403
:101F2C00204670BD300100202DE9F041CD1C25F07C
:101F3C00030508350C2D38BF0C25002D074601DB99
:101F4C00A94205D90C2300263B603046BDE8F08140
:101F5C002E4E00F09DF833681C4634BB294638469B
:101F6C00FFF7C2FF431C04464DD134682646002EB1
:101F7C0040D123683146384604EB030800F078F86A
:101F8C0080453AD1216803356D1A25F003050835D3
:101F9C000C2D38BF0C2538462946FFF7A5FF01301C
:101FAC002BD023682B4423600EE02268521B1ED4D6
:101FBC000B2A16D96119A342256018BF59606368B2
:101FCC0008BF316062514B60384604F10B0600F0DB
:101FDC0065F826F00706231DF21AB6D09B1BA350FA
:101FEC00B3E76268A3420CBF32605A60ECE7234649
:101FFC006468B2E734467668B9E70C2338463B6030
:10200C0000F04CF8A1E72560DEE700BF2C010020B2
:10201C002DE9F041804614460E4621B91146BDE823
:10202C00F041FFF781BF2AB9FFF716FF2546284676
:10203C00BDE8F08100F038F88442074602D8B4EBD2
:10204C00500F12D821464046FFF76EFF0546002878
:10205C00EDD0BC422246314628BF3A46FFF7D4FEAB
:10206C0031464046FFF7F8FEE1E73546DFE7000072
:10207C0038B50023054D044608462B6000F01EF8C9
:10208C00431C02D12B6803B1236038BD34010020FE
:10209C00014800F011B800BF38010020014800F0E1
:1020AC000CB800BF3801002051F8043C181F002B5D
:1020BC00BCBF0B58C018704770477047044A05499D
:1020CC001368002B08BF0B46184410601846704765
:1020DC003C01002040010020F8B500BFF8BC08BC52
:1020EC009E467047F8B500BFF8BC08BC9E467047CA
:1020FC00776F726F6E67207772706E670D0A0000D3
:10210C004E524632344C30312020776F726B696EF0
:10211C00670D0A0072656365697665696E673A0DCD
:10212C000A0000004E524632344C3031E697A0E79C
:10213C00BABFE6A8A1E59D97E695B0E68DAEE68E12
:10214C00A5E694B6E68890E58A9FEFBC9A25730DB8
:10215C000A00000002030405060708090A0B0C0D0F
:10216C000E0F101000000000000000000000000026
:10217C000102030406070809000000000102030421
:10218C00A5A5A5A5A50000003443101001232D30F2
:10219C002B2000686C4C0065666745464700303163
:1021AC0032333435363738394142434445460030B2
:1021BC0031323334353637383961626364656600E1
:0421CC0031010008D5
:0421D0000D010008F5
:1021D40001000000100000000024F40010000020A2
:1021E40000000000000000000000000000000000EB
:1021F40000000000000000000000000000000000DB
:1022040000000000000000000000000000000000CA
:1022140000000000000000000000000000000000BA
:1022240000000000000000000000000000000000AA
:10223400000000000000000000000000000000009A
:0400000508001731A7
:00000001FF
